{
    "contractName": "CryptoPhunksMarket",
    "abi": [
        {
            "inputs": [
                {
                    "internalType": "address",
                    "name": "initialPhunksAddress",
                    "type": "address"
                }
            ],
            "stateMutability": "nonpayable",
            "type": "constructor"
        },
        {
            "anonymous": false,
            "inputs": [
                {
                    "indexed": false,
                    "internalType": "address",
                    "name": "account",
                    "type": "address"
                }
            ],
            "name": "Paused",
            "type": "event"
        },
        {
            "anonymous": false,
            "inputs": [
                {
                    "indexed": true,
                    "internalType": "uint256",
                    "name": "phunkIndex",
                    "type": "uint256"
                },
                {
                    "indexed": false,
                    "internalType": "uint256",
                    "name": "value",
                    "type": "uint256"
                },
                {
                    "indexed": true,
                    "internalType": "address",
                    "name": "fromAddress",
                    "type": "address"
                }
            ],
            "name": "PhunkBidEntered",
            "type": "event"
        },
        {
            "anonymous": false,
            "inputs": [
                {
                    "indexed": true,
                    "internalType": "uint256",
                    "name": "phunkIndex",
                    "type": "uint256"
                },
                {
                    "indexed": false,
                    "internalType": "uint256",
                    "name": "value",
                    "type": "uint256"
                },
                {
                    "indexed": true,
                    "internalType": "address",
                    "name": "fromAddress",
                    "type": "address"
                }
            ],
            "name": "PhunkBidWithdrawn",
            "type": "event"
        },
        {
            "anonymous": false,
            "inputs": [
                {
                    "indexed": true,
                    "internalType": "uint256",
                    "name": "phunkIndex",
                    "type": "uint256"
                },
                {
                    "indexed": false,
                    "internalType": "uint256",
                    "name": "value",
                    "type": "uint256"
                },
                {
                    "indexed": true,
                    "internalType": "address",
                    "name": "fromAddress",
                    "type": "address"
                },
                {
                    "indexed": true,
                    "internalType": "address",
                    "name": "toAddress",
                    "type": "address"
                }
            ],
            "name": "PhunkBought",
            "type": "event"
        },
        {
            "anonymous": false,
            "inputs": [
                {
                    "indexed": true,
                    "internalType": "uint256",
                    "name": "phunkIndex",
                    "type": "uint256"
                }
            ],
            "name": "PhunkNoLongerForSale",
            "type": "event"
        },
        {
            "anonymous": false,
            "inputs": [
                {
                    "indexed": true,
                    "internalType": "uint256",
                    "name": "phunkIndex",
                    "type": "uint256"
                },
                {
                    "indexed": false,
                    "internalType": "uint256",
                    "name": "minValue",
                    "type": "uint256"
                },
                {
                    "indexed": true,
                    "internalType": "address",
                    "name": "toAddress",
                    "type": "address"
                }
            ],
            "name": "PhunkOffered",
            "type": "event"
        },
        {
            "anonymous": false,
            "inputs": [
                {
                    "indexed": false,
                    "internalType": "address",
                    "name": "account",
                    "type": "address"
                }
            ],
            "name": "Unpaused",
            "type": "event"
        },
        {
            "inputs": [
                {
                    "internalType": "uint256",
                    "name": "phunkIndex",
                    "type": "uint256"
                },
                {
                    "internalType": "uint256",
                    "name": "minPrice",
                    "type": "uint256"
                }
            ],
            "name": "acceptBidForPhunk",
            "outputs": [],
            "stateMutability": "nonpayable",
            "type": "function"
        },
        {
            "inputs": [
                {
                    "internalType": "uint256",
                    "name": "phunkIndex",
                    "type": "uint256"
                }
            ],
            "name": "buyPhunk",
            "outputs": [],
            "stateMutability": "payable",
            "type": "function"
        },
        {
            "inputs": [
                {
                    "internalType": "uint256",
                    "name": "phunkIndex",
                    "type": "uint256"
                }
            ],
            "name": "enterBidForPhunk",
            "outputs": [],
            "stateMutability": "payable",
            "type": "function"
        },
        {
            "inputs": [
                {
                    "internalType": "uint256",
                    "name": "phunkIndex",
                    "type": "uint256"
                },
                {
                    "internalType": "uint256",
                    "name": "minSalePriceInWei",
                    "type": "uint256"
                }
            ],
            "name": "offerPhunkForSale",
            "outputs": [],
            "stateMutability": "nonpayable",
            "type": "function"
        },
        {
            "inputs": [],
            "name": "paused",
            "outputs": [
                {
                    "internalType": "bool",
                    "name": "",
                    "type": "bool"
                }
            ],
            "stateMutability": "view",
            "type": "function"
        },
        {
            "inputs": [
                {
                    "internalType": "address",
                    "name": "",
                    "type": "address"
                }
            ],
            "name": "pendingWithdrawals",
            "outputs": [
                {
                    "internalType": "uint256",
                    "name": "",
                    "type": "uint256"
                }
            ],
            "stateMutability": "view",
            "type": "function"
        },
        {
            "inputs": [
                {
                    "internalType": "uint256",
                    "name": "",
                    "type": "uint256"
                }
            ],
            "name": "phunkBids",
            "outputs": [
                {
                    "internalType": "bool",
                    "name": "hasBid",
                    "type": "bool"
                },
                {
                    "internalType": "uint256",
                    "name": "phunkIndex",
                    "type": "uint256"
                },
                {
                    "internalType": "address",
                    "name": "bidder",
                    "type": "address"
                },
                {
                    "internalType": "uint256",
                    "name": "value",
                    "type": "uint256"
                }
            ],
            "stateMutability": "view",
            "type": "function"
        },
        {
            "inputs": [
                {
                    "internalType": "uint256",
                    "name": "phunkIndex",
                    "type": "uint256"
                }
            ],
            "name": "phunkNoLongerForSale",
            "outputs": [],
            "stateMutability": "nonpayable",
            "type": "function"
        },
        {
            "inputs": [],
            "name": "phunksAddress",
            "outputs": [
                {
                    "internalType": "address",
                    "name": "",
                    "type": "address"
                }
            ],
            "stateMutability": "view",
            "type": "function"
        },
        {
            "inputs": [
                {
                    "internalType": "uint256",
                    "name": "",
                    "type": "uint256"
                }
            ],
            "name": "phunksOfferedForSale",
            "outputs": [
                {
                    "internalType": "bool",
                    "name": "isForSale",
                    "type": "bool"
                },
                {
                    "internalType": "uint256",
                    "name": "phunkIndex",
                    "type": "uint256"
                },
                {
                    "internalType": "address",
                    "name": "seller",
                    "type": "address"
                },
                {
                    "internalType": "uint256",
                    "name": "minValue",
                    "type": "uint256"
                },
                {
                    "internalType": "address",
                    "name": "onlySellTo",
                    "type": "address"
                }
            ],
            "stateMutability": "view",
            "type": "function"
        },
        {
            "inputs": [
                {
                    "internalType": "address",
                    "name": "newPhunksAddress",
                    "type": "address"
                }
            ],
            "name": "setPhunksContract",
            "outputs": [],
            "stateMutability": "nonpayable",
            "type": "function"
        },
        {
            "inputs": [],
            "name": "withdraw",
            "outputs": [],
            "stateMutability": "nonpayable",
            "type": "function"
        },
        {
            "inputs": [
                {
                    "internalType": "uint256",
                    "name": "phunkIndex",
                    "type": "uint256"
                }
            ],
            "name": "withdrawBidForPhunk",
            "outputs": [],
            "stateMutability": "nonpayable",
            "type": "function"
        }
    ],
    "bytecode": "608060405234801561001057600080fd5b5060405161159938038061159983398101604081905261002f916100e4565b60016000819055805460ff191690556040516370a0823160e01b81523060048201526001600160a01b038216906370a0823190602401602060405180830381865afa158015610082573d6000803e3d6000fd5b505050506040513d601f19601f820116820180604052508101906100a69190610114565b50600180546001600160a01b0390921661010002610100600160a81b0319909216919091179055600280546001600160a01b0319163317905561012d565b6000602082840312156100f657600080fd5b81516001600160a01b038116811461010d57600080fd5b9392505050565b60006020828403121561012657600080fd5b5051919050565b61145d8061013c6000396000f3fe6080604052600436106100c25760003560e01c80635c975abb1161007f578063941c984711610059578063941c984714610261578063bad9f860146102e4578063f3f4370314610304578063f8529df31461033f57600080fd5b80635c975abb1461020b57806364a69a0c1461022e5780636d7287961461024e57600080fd5b806306c5eb3e146100c75780630c0697a6146101025780631904d20a146101245780633ccfd60b146101445780635761a916146101595780635abe357a14610179575b600080fd5b3480156100d357600080fd5b5060015461010090046001600160a01b03166040516001600160a01b0390911681526020015b60405180910390f35b34801561010e57600080fd5b5061012261011d36600461130c565b610352565b005b34801561013057600080fd5b5061012261013f36600461132e565b61050a565b34801561015057600080fd5b50610122610684565b34801561016557600080fd5b5061012261017436600461132e565b6106f5565b34801561018557600080fd5b506101d561019436600461132e565b60036020819052600091825260409091208054600182015460028301549383015460049093015460ff9092169390926001600160a01b039182169290911685565b60408051951515865260208601949094526001600160a01b0392831693850193909352606084015216608082015260a0016100f9565b34801561021757600080fd5b5060015460ff1660405190151581526020016100f9565b34801561023a57600080fd5b5061012261024936600461135f565b610875565b61012261025c36600461132e565b6108b4565b34801561026d57600080fd5b506102b361027c36600461132e565b600460205260009081526040902080546001820154600283015460039093015460ff9092169290916001600160a01b039091169084565b6040516100f99493929190931515845260208401929092526001600160a01b03166040830152606082015260800190565b3480156102f057600080fd5b506101226102ff36600461130c565b610ae1565b34801561031057600080fd5b5061033161031f36600461135f565b60056020526000908152604090205481565b6040519081526020016100f9565b61012261034d36600461132e565b610efe565b60015460ff161561037e5760405162461bcd60e51b815260040161037590611383565b60405180910390fd5b600260005414156103a15760405162461bcd60e51b8152600401610375906113ad565b600260005561271082106103b457600080fd5b6001546040516331a9108f60e11b815260048101849052339161010090046001600160a01b031690636352211e90602401602060405180830381865afa158015610402573d6000803e3d6000fd5b505050506040513d601f19601f8201168201806040525081019061042691906113e4565b6001600160a01b03161461043957600080fd5b6040805160a0810182526001808252602080830186815233848601908152606085018781526000608087018181528a825260038087528983209851895460ff191690151517895594519688019690965591516002870180546001600160a01b03199081166001600160a01b039384161790915591519387019390935593516004909501805490941694909116939093179091559151838152909184917f56c70414e74a5c3a36f4d7822661f950a52445120c261e1aca8eb98162d4e09d91015b60405180910390a350506001600055565b6002600054141561052d5760405162461bcd60e51b8152600401610375906113ad565b6002600055612710811061054057600080fd5b6001546040516331a9108f60e11b815260048101839052339161010090046001600160a01b031690636352211e90602401602060405180830381865afa15801561058e573d6000803e3d6000fd5b505050506040513d601f19601f820116820180604052508101906105b291906113e4565b6001600160a01b0316146105c557600080fd5b6040805160a081018252600080825260208083018581523384860190815260608501848152608086018581528886526003948590528786209651875460ff19169015151787559251600187015590516002860180546001600160a01b03199081166001600160a01b03938416179091559151938601939093559051600490940180549091169390911692909217909155905182917fecbc479f5da5c26817448a40f3eb43debe1723fa03f7f7165d2aebc28338634e91a2506001600055565b600260005414156106a75760405162461bcd60e51b8152600401610375906113ad565b6002600090815533808252600560205260408083208054908490559051909283156108fc02918491818181858888f193505050501580156106ec573d6000803e3d6000fd5b50506001600055565b600260005414156107185760405162461bcd60e51b8152600401610375906113ad565b6002600055612710811061072b57600080fd5b6000818152600460209081526040918290208251608081018452815460ff161515815260018201549281019290925260028101546001600160a01b031692820183905260030154606082015290331461078357600080fd5b336001600160a01b0316827fff7558f932f454bdaae94435ae56ef94bb7f3845edb4dceeb67b27e793025cc183606001516040516107c391815260200190565b60405180910390a3606081810151604080516080810182526000808252602080830188815283850183815296840183815289845260049092528483209351845460ff191690151517845551600184015594516002830180546001600160a01b0319166001600160a01b03909216919091179055935160039091015551909133916108fc84150291849190818181858888f1935050505015801561086a573d6000803e3d6000fd5b505060016000555050565b6002546001600160a01b0316331461088c57600080fd5b600180546001600160a01b0390921661010002610100600160a81b0319909216919091179055565b60015460ff16156108d75760405162461bcd60e51b815260040161037590611383565b600260005414156108fa5760405162461bcd60e51b8152600401610375906113ad565b6002600055612710811061090d57600080fd5b6001546040516331a9108f60e11b815260048101839052339161010090046001600160a01b031690636352211e90602401602060405180830381865afa15801561095b573d6000803e3d6000fd5b505050506040513d601f19601f8201168201806040525081019061097f91906113e4565b6001600160a01b0316141561099357600080fd5b3461099d57600080fd5b6000818152600460209081526040918290208251608081018452815460ff161515815260018201549281019290925260028101546001600160a01b0316928201929092526003909101546060820181905234116109f957600080fd5b606081015115610a3a5760608101516040808301516001600160a01b0316600090815260056020529081208054909190610a34908490611401565b90915550505b604080516080810182526001808252602080830186815233848601818152346060870181815260008b8152600487528990209751885460ff1916901515178855935195870195909555516002860180546001600160a01b0319166001600160a01b0390921691909117905590516003909401939093559251908152909184917f5e5c444a9060fa9489d7e455b3a6f1c2f9b2ac7119c1cee6dc5fe6160c54590891016104f9565b60015460ff1615610b045760405162461bcd60e51b815260040161037590611383565b60026000541415610b275760405162461bcd60e51b8152600401610375906113ad565b60026000556127108210610b3a57600080fd5b6001546040516331a9108f60e11b815260048101849052339161010090046001600160a01b031690636352211e90602401602060405180830381865afa158015610b88573d6000803e3d6000fd5b505050506040513d601f19601f82011682018060405250810190610bac91906113e4565b6001600160a01b031614610bbf57600080fd5b6000828152600460209081526040918290208251608081018452815460ff161515815260018201549281019290925260028101546001600160a01b03169282019290925260039091015460608201819052339190610c1c57600080fd5b8281606001511015610c2d57600080fd5b60408101516001600160a01b038381169082161415610c4b57600080fd5b6040518060a00160405280600015158152602001868152602001826001600160a01b031681526020016000815260200160006001600160a01b03168152506003600087815260200190815260200160002060008201518160000160006101000a81548160ff0219169083151502179055506020820151816001015560408201518160020160006101000a8154816001600160a01b0302191690836001600160a01b031602179055506060820151816003015560808201518160040160006101000a8154816001600160a01b0302191690836001600160a01b03160217905550905050600082606001519050604051806080016040528060001515815260200187815260200160006001600160a01b0316815260200160008152506004600088815260200190815260200160002060008201518160000160006101000a81548160ff0219169083151502179055506020820151816001015560408201518160020160006101000a8154816001600160a01b0302191690836001600160a01b031602179055506060820151816003015590505060018054906101000a90046001600160a01b03166001600160a01b03166342842e0e3384896040518463ffffffff1660e01b8152600401610e3e939291906001600160a01b039384168152919092166020820152604081019190915260600190565b600060405180830381600087803b158015610e5857600080fd5b505af1158015610e6c573d6000803e3d6000fd5b505050506001600160a01b03841660009081526005602052604081208054839290610e98908490611401565b92505081905550816001600160a01b0316846001600160a01b0316877f975c7be5322a86cddffed1e3e0e55471a764ac2764d25176ceb8e17feef9392c8660600151604051610ee991815260200190565b60405180910390a45050600160005550505050565b60015460ff1615610f215760405162461bcd60e51b815260040161037590611383565b60026000541415610f445760405162461bcd60e51b8152600401610375906113ad565b60026000556127108110610f5757600080fd5b600081815260036020818152604092839020835160a081018552815460ff16151580825260018301549382019390935260028201546001600160a01b039081169582019590955292810154606084015260040154909216608082015290610fbd57600080fd5b60808101516001600160a01b031615801590610fe6575060808101516001600160a01b03163314155b15610ff057600080fd5b8060600151341461100057600080fd5b60408101516001600160a01b038116331461101a57600080fd5b6001546040516331a9108f60e11b8152600481018590526101009091046001600160a01b031690636352211e90602401602060405180830381865afa158015611067573d6000803e3d6000fd5b505050506040513d601f19601f8201168201806040525081019061108b91906113e4565b6001600160a01b0316816001600160a01b0316146110a857600080fd5b6040805160a081018252600080825260208083018781523384860181815260608601858152608087018681528b8752600395869052958890209651875460ff1916901515178755925160018088019190915590516002870180546001600160a01b03199081166001600160a01b03938416179091559351948701949094559351600495860180549093169084161790915591549351632142170760e11b815285821693810193909352602483019190915260448201869052610100909204909116906342842e0e90606401600060405180830381600087803b15801561118d57600080fd5b505af11580156111a1573d6000803e3d6000fd5b505050506001600160a01b038116600090815260056020526040812080543492906111cd908490611401565b909155505060405134815233906001600160a01b0383169085907f975c7be5322a86cddffed1e3e0e55471a764ac2764d25176ceb8e17feef9392c9060200160405180910390a46000838152600460209081526040918290208251608081018452815460ff161515815260018201549281019290925260028101546001600160a01b03169282018390526003015460608201529033141561086a576060810151336000908152600560205260408120805490919061128c908490611401565b909155505060408051608081018252600080825260208083018881528385018381526060850184815299845260049092529382209251835460ff1916901515178355925160018084019190915592516002830180546001600160a01b0319166001600160a01b039092169190911790559551600390910155909355505050565b6000806040838503121561131f57600080fd5b50508035926020909101359150565b60006020828403121561134057600080fd5b5035919050565b6001600160a01b038116811461135c57600080fd5b50565b60006020828403121561137157600080fd5b813561137c81611347565b9392505050565b60208082526010908201526f14185d5cd8589b194e881c185d5cd95960821b604082015260600190565b6020808252601f908201527f5265656e7472616e637947756172643a207265656e7472616e742063616c6c00604082015260600190565b6000602082840312156113f657600080fd5b815161137c81611347565b6000821982111561142257634e487b7160e01b600052601160045260246000fd5b50019056fea2646970667358221220ddf7a339400e0f5ca3f74f1785d41360d5a9c85058c330f295dac8019f074f6d64736f6c634300080a0033",
    "sourcePath": "/Users/kenobi/Desktop/dev/CryptoPhunksMarket/contracts/CryptoPhunksMarket.sol",
    "compiler": {
        "name": "solc",
        "version": "0.8.10+commit.fc410830"
    },
    "functionHashes": {
        "acceptBidForPhunk(uint256,uint256)": "bad9f860",
        "buyPhunk(uint256)": "f8529df3",
        "enterBidForPhunk(uint256)": "6d728796",
        "offerPhunkForSale(uint256,uint256)": "0c0697a6",
        "paused()": "5c975abb",
        "pendingWithdrawals(address)": "f3f43703",
        "phunkBids(uint256)": "941c9847",
        "phunkNoLongerForSale(uint256)": "1904d20a",
        "phunksAddress()": "06c5eb3e",
        "phunksOfferedForSale(uint256)": "5abe357a",
        "setPhunksContract(address)": "64a69a0c",
        "withdraw()": "3ccfd60b",
        "withdrawBidForPhunk(uint256)": "5761a916"
    },
    "gasEstimates": {
        "creation": {
            "codeDepositCost": "1042600",
            "executionCost": "infinite",
            "totalCost": "infinite"
        },
        "external": {
            "acceptBidForPhunk(uint256,uint256)": "infinite",
            "buyPhunk(uint256)": "infinite",
            "enterBidForPhunk(uint256)": "infinite",
            "offerPhunkForSale(uint256,uint256)": "infinite",
            "paused()": "2315",
            "pendingWithdrawals(address)": "2579",
            "phunkBids(uint256)": "8937",
            "phunkNoLongerForSale(uint256)": "infinite",
            "phunksAddress()": "2320",
            "phunksOfferedForSale(uint256)": "11171",
            "setPhunksContract(address)": "26761",
            "withdraw()": "infinite",
            "withdrawBidForPhunk(uint256)": "infinite"
        }
    }
}